:100000000C942A000C944E030C9477030C94A003D8
:100010000C943C000C943C000C943C000C943C0070
:100020000C943C000C943C000C9488040C94B10497
:100030000C943C000C943C000C943C000C943C0050
:100040000C943C000C943C000C943C000C943C0040
:100050000C943C0011241FBECFE5D8E0DEBFCDBF1D
:1000600020E0A0E6B0E001C01D92A237B207E1F7A0
:100070000E9484010C94DA040C940000CF9340E0B9
:1000800050E061E080E00E946402809100008130D5
:10009000B1F441E061E080E00E94110241E064E0DF
:1000A00081E00E94110240E061E081E00E941102C3
:1000B00068E873E180E090E00E9448043CC041E0C1
:1000C00061E081E00E94110240E061E080E00E9476
:1000D000110240E062E080E00E941102C0E00FC027
:1000E00062E081E00E94800162E080E00E94800185
:1000F00064EF71E080E090E00E944804CF5FCA3076
:1001000078F340E061E081E00E94110240E064E0A9
:1001100080E00E94110241E061E080E00E94110253
:1001200041E064E081E00E94110268E873E180E050
:1001300090E00E94480440E061E080E00E941102EB
:10014000C0E00FC062E081E00E94800162E080E0D8
:100150000E94800164EF71E080E090E00E9448041A
:10016000CF5FCA3078F341E064E080E00E94110282
:1001700040E061E080E00E94110240E061E081E047
:100180000E94110240E064E081E00E94110264EFED
:1001900071E080E090E00E94480440E064E080E08C
:1001A0000E94110280E0CF91089547E060E082E074
:1001B0000E94570140E050E061E080E00E9464024C
:1001C0000E94210480910000882311F081E00895AD
:1001D00080E00895CF93DF9341E064E080E00E94E7
:1001E000110268E873E180E090E00E94F60340E0CD
:1001F00064E080E00E941102C0E0D0E00CC062E048
:1002000080E00E94800164EF71E080E090E00E9455
:10021000F603CF5FD1E0CA3090F340E062E080E0C7
:100220000E94110241E061E080E00E94110268E852
:1002300073E180E090E00E94F60340E061E080E03E
:100240000E941102C0E00CC062E080E00E948001C8
:1002500064EF71E080E090E00E94F603CF5FD1E0B0
:10026000CA3090F3D11102C081E001C080E0DF917B
:10027000CF91089547E061E082E00E94570140E09D
:1002800050E061E081E00E9464020E9421048091BC
:100290000000882311F082E0089580E008954EE385
:1002A00050E061E080E00E94C50280E00895CF93B5
:1002B000DF93C62FD42F813061F442E06D2F8C2F55
:1002C0000E948D0141E06D2F8C2F0E94110281E070
:1002D0000FC0823061F442E06D2F8C2F0E948D019F
:1002E00040E06D2F8C2F0E94110281E001C080E060
:1002F000811102C083E001C080E0DF91CF910895B9
:100300000E94A20280E008950E94D5000E943A0156
:100310000E944F010E94EA00FDCF813011F130F0C0
:100320008230D1F1833009F452C06CC0413051F0B9
:1003300018F0423089F068C08AB3609568236ABBC0
:1003400080E069C08AB3962F909589238ABB8BB3CE
:10035000682B6BBB80E05FC08AB3682B6ABB80E010
:100360005AC0413051F018F0423089F04FC087B385
:100370006095682367BB80E04EC087B3962F909549
:10038000892387BB88B3682B68BB80E044C087B3F0
:10039000682B67BB80E03FC0413051F018F042301D
:1003A00089F036C084B36095682364BB80E033C0B5
:1003B00084B3962F9095892384BB85B3682B65BB46
:1003C00080E029C084B3682B64BB80E024C0413046
:1003D00051F018F0423089F01DC081B36095682358
:1003E00061BB80E018C081B3962F9095892381BBB3
:1003F00082B3682B62BB80E00EC081B3682B61BB07
:1004000080E009C081E007C081E005C081E003C051
:1004100081E001C081E0813011F483E0089580E043
:1004200008958130A9F028F0823009F1833071F10C
:100430003CC0413029F48BB3682B6BBB80E03EC0DD
:10044000411135C08BB3609568236BBB80E036C02B
:10045000413029F488B3682B68BB80E02FC041117C
:1004600028C088B36095682368BB80E027C041300E
:1004700029F485B3682B65BB80E020C041111BC007
:1004800085B36095682365BB80E018C0413029F4CE
:1004900082B3682B62BB80E011C041110EC082B3F1
:1004A0006095682362BB80E009C081E007C081E0FD
:1004B00005C081E003C081E001C081E0813011F41A
:1004C00082E0089580E00895813091F028F0823034
:1004D000D9F0833031F131C089B3682329F081E04C
:1004E000FA01808380E02AC0FA01108280E026C0F1
:1004F00086B3682329F081E0FA01808380E01EC082
:10050000FA01108280E01AC083B36823613029F4B5
:1005100081E0FA01808380E011C0FA01108280E05E
:100520000DC080B3682329F081E0FA01808380E068
:1005300005C0FA01108280E001C081E0813009F03D
:1005400080E00895813059F028F0823069F08330DE
:1005500081F014C08BB368276BBB80E010C088B3F8
:10056000682768BB80E00BC085B3682765BB80E067
:1005700006C082B3682762BB80E001C081E08130A1
:1005800011F484E0089580E008959FB790689FBFBC
:100590008130A1F120F0823009F45FC074C08BB7C4
:1005A00080648BBF5093650040936400613071F0AC
:1005B00028F0623099F06330C9F067C085B7816078
:1005C00085BF85B7826085BF80E064C085B78E7FB8
:1005D00085BF85B7826085BF80E05CC085B78160DC
:1005E00085BF85B78D7F85BF80E054C085B78E7F7E
:1005F00085BF85B78D7F85BF80E04CC08BB7806895
:100600008BBF5093630040936200613071F028F01B
:10061000623099F06330C9F03AC085B7846085BF15
:1006200085B7886085BF80E035C085B78B7F85BF83
:1006300085B7886085BF80E02DC085B7846085BFA1
:1006400085B7877F85BF80E025C085B78B7F85BF55
:1006500085B7877F85BF80E01DC08BB780628BBF69
:100660005093610040936000662319F0613031F0CF
:1006700010C084B7806484BF80E00CC084B78F7BD7
:1006800084BF80E007C081E005C081E003C081E055
:1006900001C081E0813009F080E008951F920F923F
:1006A0000FB60F9211242F933F934F935F936F9345
:1006B0007F938F939F93AF93BF93EF93FF93E091BB
:1006C0006400F0916500309709F00995FF91EF9172
:1006D000BF91AF919F918F917F916F915F914F915A
:1006E0003F912F910F900FBE0F901F9018951F9262
:1006F0000F920FB60F9211242F933F934F935F9356
:100700006F937F938F939F93AF93BF93EF93FF93D9
:10071000E0916200F0916300309709F00995FF9134
:10072000EF91BF91AF919F918F917F916F915F9169
:100730004F913F912F910F900FBE0F901F901895E2
:100740001F920F920FB60F9211242F933F934F9346
:100750005F936F937F938F939F93AF93BF93EF9329
:10076000FF93E0916000F0916100309709F00995E6
:10077000FF91EF91BF91AF919F918F917F916F9179
:100780005F914F913F912F910F900FBE0F901F904F
:10079000189580916E0090916F00A0917000B091BB
:1007A00071000196A11DB11D80936E0090936F00A2
:1007B000A0937000B093710080916E0090916F00D3
:1007C000A0917000B0917100892B8A2B8B2B11F4B2
:1007D00085E0089580E0089580B7816080BF00B60D
:1007E00000FE02C084E0089580E00895CF92DF9279
:1007F000EF92FF922091660030916700232BD9F091
:100800006B017C0110926E0010926F0010927000CC
:10081000109271000E94EC0380916E0090916F0025
:10082000A0917000B0917100C816D906EA06FB06C7
:1008300098F780E001C085E0FF90EF90DF90CF90C7
:1008400008958FB780688FBF83B78F7B83BF83B7CF
:10085000886083BF83B78F7E83BF83B78F7D83BF5D
:1008600089B7826089BF8AEF8CBF83B7836083BFFB
:1008700089EC93E0909367008093660080B7816075
:1008800080BF83B7811102C085E0089580E008959C
:100890000F931F938B019C0110926A0010926B00C2
:1008A00010926C0010926D0012BE16C082B78A3F83
:1008B00099F480916A0090916B00A0916C00B091C6
:1008C0006D000196A11DB11D80936A0090936B008D
:1008D000A0936C00B0936D0040916A0050916B0042
:1008E00060916C0070916D00D901C801880F991F4B
:1008F000AA1FBB1F481759076A077B07B8F283B7BF
:10090000811102C085E001C080E01F910F91089520
:100910001F920F920FB60F9211242F933F934F9374
:100920005F936F937F938F939F93AF93BF93EF9357
:10093000FF93E0916600F0916700309709F0099508
:10094000FF91EF91BF91AF919F918F917F916F91A7
:100950005F914F913F912F910F900FBE0F901F907D
:1009600018951F920F920FB60F9211242F933F9359
:100970004F935F936F937F938F939F93AF93BF93A7
:10098000EF93FF93E0916800F0916900309709F0D0
:100990000995FF91EF91BF91AF919F918F917F91B9
:1009A0006F915F914F913F912F910F900FBE0F90DC
:0809B0001F901895F894FFCF89
:00000001FF
